:100000000C9462000C948A000C948A000C948A0070
:100010000C948A000C948A000C948A000C948A0038
:100020000C948A000C948A000C948A000C948A0028
:100030000C948A000C948A000C948A000C948A0018
:100040000C946C040C948A000C948A000C948A0022
:100050000C948A000C948A000C948A000C948A00F8
:100060000C94B6040C948A000000000023002600C3
:10007000290000000008000201000003040700003E
:1000800000000000000000000000250028002B00F8
:1000900000000000240027002A00040404040404D3
:1000A0000404020202020202030303030303010227
:1000B00004081020408001020408102001020408F6
:1000C0001020D50511241FBECFEFD8E0DEBFCDBF75
:1000D00011E0A0E0B1E0EEECFEE002C005900D9270
:1000E000A634B107D9F722E0A6E4B1E001C01D9221
:1000F000A532B207E1F710E0C2E6D0E004C02197D4
:10010000FE010E945F07C136D107C9F70E94F505BD
:100110000C9465070C940000CF93DF9390E0FC01F2
:10012000E255FF4F249186569F4FFC01849188230E
:10013000C1F090E0880F991FFC01E057FF4FC59177
:10014000D491FC01EA57FF4FA591B4919FB7F89461
:100150008881E22FE0958E2388838C91E823EC93AD
:100160009FBFDF91CF910895833081F028F48130D3
:1001700099F08230A9F008958730A9F08830C9F04D
:100180008430B1F4809180008F7D03C08091800025
:100190008F7780938000089584B58F7784BD08950C
:1001A00084B58F7DFBCF8091B0008F778093B000B6
:1001B00008958091B0008F7DF9CFCF93DF93282FE2
:1001C00030E0F901EE58FF4F8491F901E255FF4FFD
:1001D000D491F901E656FF4FC491CC23A1F08111CF
:1001E0000E94B400EC2FF0E0EE0FFF1FE859FF4F24
:1001F000A591B491EC91ED2381E090E009F480E0C9
:10020000DF91CF91089580E090E0FACF1F93CF93D4
:10021000DF93282F30E0F901EE58FF4F8491F90168
:10022000E255FF4FD491F901E656FF4FC491CC231C
:10023000A9F0162F81110E94B400EC2FF0E0EE0F10
:10024000FF1FEA57FF4FA591B4918FB7F894EC9137
:10025000111108C0D095DE23DC938FBFDF91CF91C1
:100260001F910895DE2BF8CF3FB7F89480910902D3
:1002700090910A02A0910B02B0910C0226B5A89BA6
:1002800005C02F3F19F00196A11DB11D3FBFBA2F28
:10029000A92F982F8827BC01CD01620F711D811DE8
:1002A000911D42E0660F771F881F991F4A95D1F76D
:1002B00008958F929F92AF92BF92CF92DF92EF926A
:1002C000FF924B015C010E9434016B017C010E9492
:1002D00034016C197D098E099F09683E73408105C0
:1002E0009105A8F321E0821A9108A108B10888EECF
:1002F000C80E83E0D81EE11CF11C81149104A104F6
:10030000B10429F7FF90EF90DF90CF90BF90AF90AE
:100310009F908F90089508950895AF92BF92CF92C5
:10032000DF92EF92FF920F931F93CF93DF936C01B5
:100330007B018B01040F151FEB015E01AE18BF0896
:10034000C017D10759F06991D601ED91FC91019048
:10035000F081E02DC6010995892B79F7C501DF9160
:10036000CF911F910F91FF90EF90DF90CF90BF90B2
:10037000AF900895089520918701260F3327331FEA
:1003800021323105ECF42091D001FC0190E080E0B5
:10039000243069F082E00895A09187012191AC0199
:1003A00049595E4FA40FB52FB11D2C9301968617A6
:1003B00098F380918701680F6093870180E008952A
:1003C00081E008951092D00181E08093CF011092D6
:1003D000AA0161E082E10E94060161E083E10E94DE
:1003E0000601E9EBF0E080818E7F808380818D7F44
:1003F000808388E48093B80085E48093BC000895EE
:10040000CF93DF9391E0909366018823B9F0C09178
:10041000B800D091BA008091BC008A7B8093BC0068
:1004200060E082E10E94060160E083E10E94060133
:100430000E94E201D093BA00C093B800DF91CF913F
:1004400008950895E091FF018091FE01E81730F4CE
:10045000F0E0EA5BFE4F808190E008958FEF9FEF20
:1004600008959091FF018091FE012FEF3FEF9817C3
:1004700048F4E92FF0E0EA5BFE4F208130E09F5F17
:100480009093FF01C90108958091FE019091FF01B1
:10049000891B990B0895CF92DF92EF92FF920F93F1
:1004A0001F93CF93DF937C01CB018A012091D6016A
:1004B000222389F0EB016B01C40ED51ECC15DD059E
:1004C00069F06991D701ED91FC910190F081E02DE7
:1004D000C7010995F3CF642F0E94BB01C801DF91CA
:1004E000CF911F910F91FF90EF90DF90CF900895E3
:1004F000CF93DF931F92CDB7DEB769832091D601EA
:100500002223F9F02091FC01203258F021E030E064
:10051000FC013383228390E080E00F90DF91CF9144
:1005200008958091FD01E82FF0E0E952FE4F998196
:1005300090838F5F8093FD018093FC0181E090E0C8
:10054000ECCF61E0CE0101960E94BB01F7CFCF92C4
:10055000DF92EF92FF920F931F93CF93DF93FC01F3
:10056000C48121E02093D601C093F7011092FD01D0
:100570001092FC018385682B8DE092E00E94780246
:10058000D091FC01D13208F092C00E9434016B017D
:100590007C018091D001811165C082E08093D001FF
:1005A00081E08093CF018FEF8093CE011092CD0137
:1005B000D093CC01A7EDB1E0ECEAF1E080E0D813F4
:1005C00085C01092AB018091AB01CC0FC82BC093BA
:1005D000AB018091AA01813009F07CC01092AA0180
:1005E0000E9434016B017C018091AB018093BB00C0
:1005F0008091D2019091D301A091D401B091D50105
:10060000892B8A2B8B2B99F00E9434010091D20107
:100610001091D3012091D4013091D5016C197D093D
:100620008E099F090617170728073907E0F18091FF
:10063000BC0083FDD9CF85EC8093BC000E943401BF
:100640006B017C018091D001823009F445C080911A
:10065000CE018F3F61F18091CE01803241F18091D6
:10066000CE0125C08091D2019091D301A091D401F7
:10067000B091D501892B8A2B8B2B09F48ACF0E944C
:1006800034010091D2011091D3012091D401309115
:10069000D5016C197D098E099F09061717072807D0
:1006A000390708F076CF8091D1010E9400021092A4
:1006B000FD011092FC011092D601DF91CF911F91A4
:1006C0000F91FF90EF90DF90CF9008959D919193BF
:1006D0008F5F75CF85EEB0CF8091D2019091D3011D
:1006E000A091D401B091D501892B8A2B8B2B09F4D1
:1006F000A9CF0E9434010091D2011091D301209121
:10070000D4013091D5016C197D098E099F09061716
:1007100017072807390708F095CFC5CF90E080E08C
:100720000895FC0101900020E9F73197AF01481BC3
:10073000590BBC0189E192E00C948D018F929F923C
:10074000AF92BF920F931F93CF93DF93CDB7DEB7D6
:10075000A1970FB6F894DEBF0FBECDBF19A24230ED
:1007600008F44AE08E010F5D1F4F842E912CB12CAE
:10077000A12CA50194010E943D07E62FB901CA01F1
:10078000EA30F4F4E05DD801EE938D01232B242BA5
:10079000252B79F790E080E0109719F0CD010E94A9
:1007A0009103A1960FB6F894DEBF0FBECDBFDF91C7
:1007B000CF911F910F91BF90AF909F908F90089510
:1007C000E95CE1CF0F931F93CF938C01C62F0E945A
:1007D000A7026C2F6460C8010E94A7026C2F6B7F78
:1007E000C8010E94A70283EC90E00197F1F7CF9136
:1007F0001F910F9108950F931F93CF93DF938C0157
:10080000D62FC42F607F642B0E94E20380E1D89F23
:10081000B00111246C2BC801DF91CF911F910F9172
:100820000C94E20341E00E94FB0381E090E0089514
:10083000CF92DF92EF92FF926B017C0141E06DE27B
:1008400089E192E00E94FB0366277727CB016C19B0
:100850007D098E099F094AE00E949E030196FF9040
:10086000EF90DF90CF90089585ED8093BC0080914C
:10087000D2019091D301A091D401B091D5010796F6
:10088000A11DB11D23E0B695A795979587952A954B
:10089000D1F72091BC0024FD03C01092D00108952F
:1008A0004091D2015091D3016091D4017091D50152
:1008B000452B462B472B69F30097A105B10541F065
:1008C0002AE22A95F1F700C00197A109B109E1CF09
:1008D0008091D1010C9400021F920F920FB60F92DB
:1008E00011242F933F938F939F93AF93BF93809146
:1008F000050290910602A0910702B0910802309182
:10090000040223E0230F2D3758F50196A11DB11DD8
:10091000209304028093050290930602A09307029D
:10092000B09308028091090290910A02A0910B02F3
:10093000B0910C020196A11DB11D80930902909304
:100940000A02A0930B02B0930C02BF91AF919F914A
:100950008F913F912F910F900FBE0F901F90189580
:1009600026E8230F0296A11DB11DD2CF1F920F9230
:100970000FB60F9211242F933F934F935F936F9372
:100980007F938F939F93AF93BF93EF93FF93809148
:10099000B900887F803609F44AC0F0F5883209F43E
:1009A000A7C018F5803109F49BC0B8F4882309F476
:1009B000F9C0883009F494C0FF91EF91BF91AF91D5
:1009C0009F918F917F916F915F914F913F912F9167
:1009D0000F900FBE0F901F901895883109F488C0B2
:1009E000803251F78093CE0114C0803409F49DC049
:1009F00040F48033B9F38833F9F68093CE0185EC67
:100A0000B0C0803509F485C0883509F496C08834B3
:100A100099F60E943404D0CF883909F48CC038F597
:100A2000883729F050F4883611F0803729F683E0B2
:100A30008093D0011092A90157C0883809F47BC077
:100A4000803919F0803809F0B7CF8091A901803240
:100A500008F071C0E091A90181E08E0F8093A90197
:100A60008091BB00F0E0E757FE4F80833DC0803BA4
:100A700039F0E0F4803A09F479C0883A09F09CCF63
:100A800084E08093D0011092880110928701E09158
:100A9000FA01F091FB0109958091870181110FC046
:100AA00081E0809387011092670109C0803C09F4BE
:100AB000A6CF883C09F4A3CF883B09F07DCFE09115
:100AC000880181E08E0F80938801F0E0E959FE4FA4
:100AD00080818093BB00909188018091870129C01B
:100AE0008091AB018093BB0085EC8093BC0064CF08
:100AF0009091CD018091CC01981758F5E091CD01EE
:100B000081E08E0F8093CD01F0E0E455FE4F8081AF
:100B1000E9CFE091CD0181E08E0F8093CD018091EE
:100B2000BB00F0E0E455FE4F80839091CD018091B1
:100B3000CC019817C8F285E8D8CFE091CD0181E0CB
:100B40008E0F8093CD018091BB00F0E0E455FE4F05
:100B500080838091CF0181115CCF81E08093AA01D5
:100B600084EA8093BC001092D00126CF85EC80935C
:100B7000BC001092D0018091A901803230F4E09144
:100B8000A901F0E0E757FE4F10826091A90170E0E3
:100B9000E091F801F091F90189E891E0099510924E
:100BA000A9010ACF1092CE0134CFEDE0F2E013821A
:100BB000128288EE93E0A0E0B0E084839583A68360
:100BC000B78384E091E091838083E9E1F2E01382CE
:100BD000128286E191E09183808387E2848380E1C1
:100BE000818782E0828713860895789484B5826035
:100BF00084BD84B5816084BD85B5826085BD85B5C1
:100C0000816085BD80916E00816080936E0010923E
:100C100081008091810082608093810080918100B9
:100C2000816080938100809180008160809380004A
:100C30008091B10084608093B1008091B0008160A8
:100C40008093B00080917A00846080937A008091D4
:100C50007A00826080937A0080917A00816080932C
:100C60007A0080917A00806880937A001092C100A7
:100C70001092FF011092FE011092FD011092FC01F2
:100C80000E94E2018BE891E09093FB018093FA01CE
:100C90008CE891E09093F9018093F80110921E0284
:100CA00080912302823018F098E090931E02809386
:100CB000210262E370E080E090E00E9459016091BF
:100CC000240289E192E00E94A70268EE73E080E0CE
:100CD00090E00E94590160E389E192E00E94E20302
:100CE000CBE4D6E4CE010197F1F760E389E192E02D
:100CF0000E94E2032197F1F760E389E192E00E940C
:100D0000E20383E592E00197F1F760E289E192E086
:100D10000E94E20360911E02606240E089E192E07D
:100D20000E94FB0384E080931F0240E06CE089E1B5
:100D300092E00E94FB0340E061E089E192E00E94C2
:100D4000FB03CBE3DFE1CE010197F1F782E0809373
:100D5000200240E066E089E192E00E94FB0340E06F
:100D600062E089E192E00E94FB032197F1F788E0BD
:100D70008093240260E089E192E00E94A70289E06A
:100D80000E948C0088E00E948C00C0E0D0E040E02F
:100D900068E189E192E00E94FB0368EE73E080E085
:100DA00090E00E94590189E00E94DD00019749F519
:100DB0008091020290910302019690930302809326
:100DC00002028EE191E00E94910360910202709113
:100DD00003028091000290910102681B790B072E9B
:100DE000000C880B990B97FF40C00E94180480E309
:100DF00091E00E94910368EE73E080E090E00E9431
:100E0000590188E00E94DD00019749F580910002B8
:100E1000909101020196909301028093000283E376
:100E200091E00E949103609102027091030280910F
:100E3000000290910102681B790B072E000C880BB1
:100E4000990B97FF16C00E94180480E391E00E945E
:100E5000910368EE73E080E090E00E9459012097D2
:100E600009F495CF0E94000092CF4AE00E949E03B1
:100E7000BECF4AE00E949E03E8CFA1E21A2EAA1B31
:100E8000BB1BFD010DC0AA1FBB1FEE1FFF1FA2173A
:100E9000B307E407F50720F0A21BB30BE40BF50B37
:100EA000661F771F881F991F1A9469F760957095C0
:100EB000809590959B01AC01BD01CF010895EE0F87
:0E0EC000FF1F0590F491E02D0994F894FFCFE8
:100ECE000000000078024B028E0321024402310220
:100EDE0022020000000012048D018E03BA01436F3E
:100EEE00756E7420696E637265617365643A200075
:100EFE000D0A00436F756E742064656372656173CD
:060F0E0065643A200000BA
:00000001FF
